:020000040800F2
:1000000040060020391600084F0500085105000879
:1000100053050008550500085705000800000000BA
:10002000000000000000000000000000590500086A
:100030005B050008000000005D0500085F05000882
:100040006D1600087116000875160008791600086C
:100050007D1600088116000885160008891600081C
:100060008D160008911600089516000899160008CC
:100070009D160008A1160008A5160008A91600087C
:1000800063050008AD160008B1160008B516000893
:10009000B9160008BD160008C1160008C5160008EC
:1000A000C9160008CD160008D1160008D51600089C
:1000B000D9160008DD160008E1160008E51600084C
:1000C000E9160008ED160008F1160008F5160008FC
:1000D000F9160008FD16000867050008011700085A
:1000E00005170008091700080D1700081117000868
:1000F00015170008191700081D1700082117000818
:1001000025170008291700082D17000831170008C7
:1001100035170008391700083D1700084117000877
:1001200045170008491700084D1700085117000827
:1001300055170008000000000000000059170008D3
:100140005D170008611700086517000869170008A7
:100150006D17000871170008751700087917000857
:100160007D17000881170008851700088917000807
:100170008D1700089117000895170008000000006F
:1001800000000000991700080000000000000000B7
:100190009D1700080000000000000000A1170008E3
:1001A000000000000000000000000000A51700088B
:1001B000A9170008AD170008B1170008B517000807
:1001C000B917000818B502681068C30608D5146886
:1001D000009452680092086801684908490001606B
:1001E00011BD2DE9F84F05462968AE6D0868C206B5
:1001F00052D5E86DDFF87873DFF878A34FF4006329
:100200008340B3600AF1A0084C68C4F140047C60EC
:100210004146D7F80090C9F58070844238BF204627
:10022000B860834607F11000C7F80C805A4648446E
:1002300000F0BCF9D944C7F80090A4EB0B047C6033
:1002400008EB0B0307F11000A9EB0B01FB6044184E
:100250005A46214607F5887000F0A8F90A231FFACC
:100260008BF221460AF1600000F0E7F97C6834B1B6
:10027000F968224607F1100000F098F93C603F2130
:10028000E86D8140B16040212868C0F80C80416071
:10029000026842F001020260BDE8F18F38B586B015
:1002A00000F06EFB00F088F800F0D8F80020B24CA7
:1002B000B24D0090216841F00401216000212068C6
:1002C00000F00400009000980091226842F0800243
:1002D0002260206800F08000009000980091226861
:1002E00042F001022260206800F0010000900098B6
:1002F00000912021226842F0020222600022206840
:1003000000F0020000900098284600F025FC4FF411
:1003100000509B49019002910022039201A9994843
:1003200000F048FB2021019101220021039104915A
:10033000029201A9284600F03DFB00200090002217
:10034000216841F40011216000212068894C00F4EB
:10035000001000900098102000F030FC102000F0F9
:100360004AFC894820664FF4165161660020A06659
:10037000E06620670C21A067E067616704F1600018
:1003800000F020F908B100F06DF8206EC16841F06E
:100390001001C16040222068016841F01001016035
:1003A00004F1600004F1A00100F0A0F920680168E8
:1003B00021F008010160FEE700B593B0342106A8E2
:1003C00000F044FC00F04AF8002000906F480168FB
:1003D00041F0805101600021006800F080500090E1
:1003E00000986B4800910121026842F4404202608B
:1003F0004FF48032006800F440400090009806916D
:10040000079202210C914FF4800204210D920E916B
:10041000B42202210F9210911191129106A800F0BE
:100420007EFC08B100F01EF800F0F8FD08B100F005
:1004300019F802210291002203920F204FF4A051DB
:10044000019004914FF480520592052101A800F01B
:1004500021FE08B100F006F813B000BD142101A878
:1004600000F0F4BB4FF47A735FF00E024BA14948E1
:1004700000F0E3B881B000200090002243484168BA
:1004800041F480414160416801F48041009100994C
:100490000092036843F080530360006800F08050CE
:1004A0000090009801B0704738B586B00446FFF759
:1004B000D5FF226834498A4247D1002000900022AB
:1004C0002D482C4D016941F400310161016901F4AD
:1004D00000310091009900920C21036843F0010360
:1004E00003600222006800F0010000900098234899
:1004F00001910292012103910322072105910492A7
:1005000001A900F057FA244828604FF000616960A3
:100510004FF4807000224FF48061E861AA60EA60C5
:1005200029616A61AA612A626A62284600F058FE5F
:1005300008B1FFF797FF6563AC6300220021262016
:1005400000F03CFB262000F056FB07B030BD7047A2
:10055000FEE7FEE7FEE7FEE770477047704700F0F2
:1005600011BF04483DE6034901F160002AE600009E
:1005700010000020600100203038024000000240DE
:1005800000002110000802400044004040380240B2
:1005900000700040C00100208860024075617274E4
:1005A000206E6F7420696E69740D0A004AB10000F4
:1005B00011F8013B521E00F8013B1CBF11F8013B32
:1005C000F8E7704738B5040001D1012032BD00F0D2
:1005D00021F808B900F022F800F012F800F023F832
:1005E000FFE7416100F001F832BD2068C16841F4C5
:1005F0000051C1600020686020216970A9707047B7
:10060000242068702068C16821F40051C160204630
:1006100000F044B904F1380568787047002129706A
:100620002046FFF741BF2068016921F49041016134
:100630002068416921F02A0170472DE9F8430546F9
:1006400005F138070C46787820281646984646D19A
:10065000002C14BF002E012042D0387801283ED053
:10066000012139700020786021227A7000F092FE1A
:100670008146AE84EE840020387003E02A6814F8C6
:10068000011B5160E88CE0B1E88C411EE9844B46C7
:10069000A868CDF80080B0F5805F0DD100F022F899
:1006A000B8B920882968C0F3080048602869002884
:1006B00014BF641CA41CE5E700F014F80028DDD08A
:1006C00007E0CDF800804B460022402100F00CF8F6
:1006D00008B1032004E020207870002000E0022010
:1006E000BDE8F2830022802128468EE07CB50446D6
:1006F00004F138051346A87820283ED109B1180026
:1007000001D1012076BD2878012836D0012028703B
:10071000A162A38500226A602220A8700026606B77
:100720000FF25D02C263606B0FF28D020264606BB8
:100730000FF28D02C2640A46606B06652668606B24
:10074000311D00F0C4FD0020009021680A6800926D
:1007500000224B68009300982A70CB6843F48073A2
:10076000CB602068416941F0010141612068416925
:1007700041F040014161002076BD022076BD0000BD
:10078000816B00680268D30513D40020C88508680F
:10079000C26822F48072C26008684269520852003E
:1007A00042610868426922F040024261202081F8DB
:1007B0003A00084600F0F4BD806B00F0F2BD000086
:1007C00038B5846B2068406904F1390529782129FE
:1007D00006D1010604D50022E284204600F047F845
:1007E000216848696978222906D1400604D500218C
:1007F000E185204600F044F8E06B40F01000E06333
:100800002046BDE8324000F0CDBD2DE9F041069C08
:1008100005460E4690461F46286801683140B142A1
:100820000CBF01200020404517D114F1010FF3D077
:1008300024B100F0AFFDC01B8442EDD22868C1682E
:1008400021F4D07100F00CF805F13800202141703E
:10085000817000210170032000E00020BDE8F081DC
:10086000C1602868416949084900416170470168D1
:10087000CA6822F0C002CA60202180F8391070478F
:100880000168CA6822F49072CA6001684A69520815
:1008900052004A61202180F83A107047D0B50646D0
:1008A000642732681169F06821F4405101431161F5
:1008B0001924D3682C48B168034030690B4371692F
:1008C0000343F0690B430343D3605169B06921F4DA
:1008D000407101435161F36924482549B3F5004F44
:1008E0001FD18A4218BF824202D100F061FC01E0B0
:1008F00000F056FC0246A4FB02017268D30F5200BE
:1009000000F068FD00F036F8FF0032376420B7FBD6
:10091000F0F0420002F4F87202EB011200F007005E
:100920001DE08A4218BF824202D100F041FC01E082
:1009300000F036FC0246A4FB02017268930F92009D
:1009400000F048FD00F016F83F0132376420B7FB95
:10095000F0F000F0F00202EB011200F00F0031683D
:1009600080188860D0BD0000F369FFFF00140140CB
:10097000001001406421B0FBF1F107FB1107704743
:1009800080B50B48016841F400710160026842F4CF
:1009900080620260016841F480710160032000F010
:1009A00000F9002000F09AFDFFF764FD002002BD71
:1009B000003C02402DE9F84F0D4600266849694A7F
:1009C0000F23044601202F68B04000EA0708804545
:1009D00040F0BC804FEA460C032707FA0CF76FEA99
:1009E000070E6F68012F18BF022F03D0112F18BFF9
:1009F000122F12D1A768D5F80C900EEA070709FA52
:100A00000CF949EA0707A760676827EA00006F68E2
:100A1000C7F30017B74038436060E068AF680EEA7C
:100A2000000007FA0CF73843E060B0006F68022F4F
:100A300018BF122F12D1F70804EB870700F01C092A
:100A4000D7F820A003FA09FB2AEA0B0AD5F810B060
:100A50000BFA09F949EA0A09C7F8209027680EEA53
:100A6000070E2F7907F0030707FA0CF747EA0E077E
:100A700027606F68FF0069D5002700974FEA960C42
:100A8000176847F48047176000F00C00176807F4F8
:100A90008047009703FA00FE009F334F57F82C70F1
:100AA00027EA0E0E314FBC4208BF00271DD0304F41
:100AB000BC4208BF012718D02E4FBC4208BF0227F6
:100AC00013D02D4FBC4208BF03270ED02B4FBC4282
:100AD00008BF042709D02A4FBC4208BF052704D00D
:100AE000284FBC420CBF0627072707FA00F01E4F0D
:100AF00040EA0E0047F82C006FEA08000F6800EA91
:100B0000070C6F68FF0348BF48EA0C0CC1F800C02F
:100B10004F6800EA070C6F68BF0348BF48EA0C0C37
:100B2000C1F804C08F6800EA070C6F68FF0248BF75
:100B300048EA0C0CC1F808C0CF6800EA070C6868E6
:100B4000800248BF48EA0C0CC1F80CC0761C0F2E7E
:100B50007FF638AFBDE8F18F02B9090481617047B3
:100B6000003C014044380240083801400000024087
:100B70000004024000080240000C02400010024045
:100B800000140240001802400901020002D4294862
:100B900081547047284B02F00F021A4402F8041CDB
:100BA0007047264B19684FF6FF020002114000F40F
:100BB000E0600843224908431860704770B51F4B36
:100BC0001C68C4F302230124C3F10705052D2EBFC1
:100BD0000F2504FA05F56D1E1E1D072E34BF0023D8
:100BE000DB1E2940994004FA03F3BDE870405B1E08
:100BF0001A401143C8E7010007D4012200F01F0189
:100C0000104B8A40400943F82020704710B5401E21
:100C1000B0F1807F01D3012010BD0B4C60600F212B
:100C20004FF0FF30FFF7B0FF0021A16007202060E8
:100C3000002010BD00E400E018ED00E00CED00E045
:100C40000000FA0500E100E010E000E0002200F002
:100C500065BC30B4002513E050F8042BD30744BF23
:100C6000A9F101039A18091F042942F8045BFAD27A
:100C700013468C0744BF15809B1CC90748BF1D70D5
:100C800050F8041B0029E7D130BC704700200860F1
:100C900000F080BB2DE95041DFF87443DFF8686352
:100CA0006068DFF8688300F00C00042804D008288E
:100CB00004D00C2815D027E0404626E000F027F8A5
:100CC00047BFC0F38816A8FB0601C0F38818A6FB2F
:100CD000080100F07FFB2168C1F30141491C490074
:100CE0000FE000F014F847BFC0F38816A8FB060118
:100CF000C0F38818A6FB080100F06CFB2168C1F363
:100D00000271B0FBF1F000E03046BDE850810023F5
:100D1000226820684102206802F03F0270472DE9F6
:100D2000F8430646B24D3078C1074FD500F064F95C
:100D300004280DD000F060F9082802D1686841024B
:100D400006D400F059F90C280AD16868410207D589
:100D5000286881033AD57068002837D1012043E123
:100D60007068B0F5803F04D1286840F48030286076
:100D700011E0B0F5A02F286806D140F4802028604B
:100D8000296841F4803105E020F48030286029682A
:100D900021F480212960706860B100F0FBFA0446FC
:100DA0002868810312D400F0F5FA001B6528F7D3F8
:100DB000032019E100F0EEFA04462868810305D506
:100DC00000F0E8FA001B6528F7D3F1E73078914F7F
:100DD00081071ED5A86810F00C0F0DD000F00CF99B
:100DE000082802D16868410206D500F005F90C28F0
:100DF00023D16868410220D42868810702D5F068B1
:100E00000128ABD12968306921F0F80141EAC0011D
:100E100029603178080741D570697F4990B3012274
:100E20000A6000F0B7FA0446686F810736D400F014
:100E3000B1FA001B0228F7D9BAE7F068A8B101217E
:100E4000396000F0A7FA04462868810705D400F04D
:100E5000A1FA001B0228F7D9AAE72868316920F017
:100E6000F80040EAC1002860D3E7386000F092FA49
:100E7000044629688807CCD500F08CFA001B0228AC
:100E8000F7D995E7FFF703FF0446686F810705D59B
:100E900000F080FA001B0228F7D989E73078410773
:100EA0005FD5286C0024C1000AD400940124296C69
:100EB00041F080512964286C00F080500090009827
:100EC000DFF83081D8F80000C10513D4D8F800004D
:100ED00040F48070C8F8000000F05CFA8146D8F851
:100EE0000000C10506D400F055FAA0EB0900022865
:100EF000F5D95DE7B068012805D00528286F06D12F
:100F000040F004002867286F40F0010005E0400829
:100F100040002867286F20F00400286741F28938D4
:100F2000B06860B100F036FA8146286F810713D4AB
:100F300000F030FAA0EB09004045F6D338E700F0A6
:100F400029FA8146286F810706D500F023FAA0EB25
:100F500009004045F6D32BE71CB1286C20F08050E7
:100F60002864B06900283ED0A96801F00C01082966
:100F70003FF4F4AE02282AD100F042F80446286873
:100F8000810105D500F006FA001B0228F7D90FE70A
:100F9000F069316A726A0843B16A490840EA82100E
:100FA000491E40EA0140F16A326B40EA016040EAC2
:100FB00002706860012000F024F80446286881016E
:100FC00011D400F0E7F9001B0228F7D9F0E600F091
:100FD00017F804462868810105D500F0DBF9001BED
:100FE0000228F7D9E4E60020BDE8F2830000000003
:100FF0000038024000700040A86800F00C00704704
:101000000020386600F0C6B90024F40000127A000F
:101010000438024000004742800E4742F8B500F015
:1010200027F8012100F01EF8316000F0B3F90746FF
:101030002868C10306D400F0ADF9C01BA042F7D365
:101040000320F2BD0120706000F0A4F90646286874
:10105000810305D400F09EF9801BA042F7D3EFE78F
:101060000020F2BD006800F08050009000987047AA
:101070000020009040F2E9340448054E0168024D1A
:1010800041F08051016070470470004040380240D8
:1010900040000E422DE9F04104000F4654D0494E65
:1010A000306800F00F00B84202D200F073F84BD164
:1010B0002068454D810712D5400703D5A96841F442
:1010C000E051A9602078010703D5A86840F460408A
:1010D000A860A968A06821F0F0010143A960217807
:1010E000C80729D56068012802D129688A0305E06C
:1010F000022818BF032803D129688A0103D423E0FA
:1011000029688A0720D5A968890840EA8100A86073
:1011100000F040F98046A868616800F00C00B0EB70
:10112000810F09D000F036F9A0EB080041F28931B7
:101130008842F0D303202BE0306800F00F00874294
:1011400004D200F027F801D0012021E020784107E7
:1011500005D5AA68E06822F4E0520243AA6021782B
:10116000080706D5A968206921F4604141EAC00159
:10117000A960FFF78FFDAA681449154BC2F303124B
:10118000895CC84018601348006800F0A7F9002087
:10119000BDE8F0813770316801F00F01B942704746
:1011A0000B480D4A006813680C49C3F3822206E01D
:1011B0000748094A006813680849C3F34232895C4A
:1011C000C8407047003C02400038024070150008DB
:1011D0000C000020080000200838024064160008B7
:1011E00070B5044600F0D6F806460CB9012070BD73
:1011F00004F134050020287002216970206802681B
:1012000052085200026022681068C1070AD500F037
:10121000C1F8801B0628F6D32020286203216970BC
:10122000032070BD1368DFF8080161680340A068FF
:101230000B43E168034320690B4361690343A069E1
:101240000B43E1690343206A0B43616A03430429AA
:1012500003D1E16A206B01430B43136023685A6991
:10126000606AD208042840EAC2020AD1A66AE16A8A
:10127000324331B1A06988B9002E18BF022E1FD0A9
:1012800016D35A61204600F065F8A96A3F228A40C9
:101290008260002028620121697070BDB0F5005F96
:1012A0000AD1032EEDD8DFE806F00D0B0D03E8E7B9
:1012B000B1F1C07FE5D105E0022E03D9F61EE0D1E1
:1012C000C801DED5402129620120687070BDF8B5E3
:1012D000044604F1340600253078776A012801D1EC
:1012E0000220F2BD01203070707801281CD102204C
:1012F00070703562204600F01DF8B06A3F2101FA97
:1013000000F0B8602068016841F016010160F068E3
:1013100020B12068016841F008010160206801687F
:1013200041F00101016001E0357002252846F2BD5F
:101330003F8010F030B50468256825F480252560CD
:1013400063608068402802D1A260E16030BDA16086
:10135000E26030BD30B5016808A401F0FF02103A28
:101360001823B2FBF3F2890A8902A55CC565042A39
:1013700028BF091D8165084630BD00000006101613
:10138000000610160248416802788A1842607047C9
:101390000000002001484068704700BF00000020A6
:1013A00070477047704730B40EE0026843680244EB
:1013B0000830DC0744BFA9F10104E31852F8045BCC
:1013C00043F8045B091FF9D150F8041B0029ECD144
:1013D00030BC7047D3BBD9B1B2F5803F5BD2022A93
:1013E0001ED98C46B1FBF2F102FB11C31B0443EA88
:1013F0001043B3FBF2FC02FB1C3380B240EA034310
:10140000B3FBF2F002FB103240EA0C4000237047BD
:10141000022A05D98446B0FBF2F002FB10C27047E5
:101420004AB105D100F0010249085FEA3000704777
:1014300000220023704700F08BB80B00020000214F
:1014400000207047F7D3002200237047904271EBD1
:10145000030CF2D370B5B1FA81F4B3FA83F52C1B07
:10146000A340C4F1200532FA05F63343A2405FF0F1
:101470000046E64002E05B085FEA3202841A71EB44
:10148000030524BF204629467641F4D302000B0011
:101490003000002170BD70B5B1FA81F4B2FA82F566
:1014A000C4F120046419B4F12006DAD3B2405FF02D
:1014B0000044F440002502E052085FEA3303C61AF4
:1014C00071EB020E24BF3046714664416D41F3D387
:1014D00002000B002000290070BD000038B50D4D42
:1014E0000D4B2A7804464FF47A711868B1FBF2F27A
:1014F000B0FBF2F0FFF78AFB50B9102C08D20022A3
:1015000021464FF0FF30FFF759FBAC60002032BDA1
:10151000012032BD000000200C00002000B500BFFB
:10152000130096469446103928BFA0E80C50FAD80C
:101530005FEA417C28BF0CC048BF40F8042BC907B4
:1015400028BF20F8022B48BF00F8012B00BD000087
:10155000704700000448054A016841F470010160C9
:101560004FF000601060704788ED00E008ED00E08B
:101570000000000000000000010203040607080943
:1015800010B5074979441831064C7C44163404E000
:101590000A68081D114488470146A142F8D110BDD0
:1015A0002C0000004C0000004EF68851CEF20001E5
:1015B000086840F470000860BFF34F8FBFF36F8F6F
:1015C0004FF00070E1EE100A7047000087F6FFFF51
:1015D000300200001000002000000000CBFDFFFFE3
:1015E0001000000064000000000000200000000067
:1015F00000F00DF8002801D0FFF7C2FFAFF3008024
:101600000020AFF30080FEF749FE00F002F8012051
:10161000704700F001B800000746384600F002F8B5
:10162000FBE7000080B5AFF30080024A11001820EC
:10163000ABBEFBE726000200014880470148004797
:1016400055150008591600080100000000000000B0
:10165000100000000024F400AFF30080FFF7A4FFA7
:10166000FFF7C6FF0000000001020304FFF7FEBF02
:10167000FFF7FEBFFFF7FEBFFFF7FEBFFFF7FEBF9E
:10168000FFF7FEBFFFF7FEBFFFF7FEBFFFF7FEBF8E
:10169000FFF7FEBFFFF7FEBFFFF7FEBFFFF7FEBF7E
:1016A000FFF7FEBFFFF7FEBFFFF7FEBFFFF7FEBF6E
:1016B000FFF7FEBFFFF7FEBFFFF7FEBFFFF7FEBF5E
:1016C000FFF7FEBFFFF7FEBFFFF7FEBFFFF7FEBF4E
:1016D000FFF7FEBFFFF7FEBFFFF7FEBFFFF7FEBF3E
:1016E000FFF7FEBFFFF7FEBFFFF7FEBFFFF7FEBF2E
:1016F000FFF7FEBFFFF7FEBFFFF7FEBFFFF7FEBF1E
:10170000FFF7FEBFFFF7FEBFFFF7FEBFFFF7FEBF0D
:10171000FFF7FEBFFFF7FEBFFFF7FEBFFFF7FEBFFD
:10172000FFF7FEBFFFF7FEBFFFF7FEBFFFF7FEBFED
:10173000FFF7FEBFFFF7FEBFFFF7FEBFFFF7FEBFDD
:10174000FFF7FEBFFFF7FEBFFFF7FEBFFFF7FEBFCD
:10175000FFF7FEBFFFF7FEBFFFF7FEBFFFF7FEBFBD
:10176000FFF7FEBFFFF7FEBFFFF7FEBFFFF7FEBFAD
:10177000FFF7FEBFFFF7FEBFFFF7FEBFFFF7FEBF9D
:10178000FFF7FEBFFFF7FEBFFFF7FEBFFFF7FEBF8D
:10179000FFF7FEBFFFF7FEBFFFF7FEBFFFF7FEBF7D
:1017A000FFF7FEBFFFF7FEBFFFF7FEBFFFF7FEBF6D
:0C17B000FFF7FEBFFFF7FEBFFFF7FEBF14
:040000050800165980
:00000001FF
